{"abi":[{"type":"function","name":"verify","inputs":[{"name":"","type":"uint128[]","internalType":"uint128[]"},{"name":"","type":"uint256[]","internalType":"uint256[]"},{"name":"","type":"uint256[]","internalType":"uint256[]"}],"outputs":[{"name":"final_result","type":"bytes32","internalType":"bytes32"}],"stateMutability":"view"}],"bytecode":{"object":"0x608080604052346015576111a6908161001a8239f35b5f80fdfe60806040526004361015610011575f80fd5b5f3560e01c634cebd17414610024575f80fd5b346102a15760603660031901126102a15760043567ffffffffffffffff81116102a1576100559036906004016102a5565b505060243567ffffffffffffffff81116102a1576100779036906004016102a5565b505060443567ffffffffffffffff81116102a1576100999036906004016102a5565b50506f189b894a1f85f9873aaab35caa668bdd611500527f89322fe6129835076e76ff196f8f9099acf4431a1614af80f7102fa7d82df894611520526f16dddae1189e9482b202b6f2a80bfe73611540527f4e68ac0e9db460e6e76daa92d9e1fc5e9876a24d74c6fb749867cd93813b0732611560526e37ab1f8d39058011b226cb7a60d6a7611680527f2f1d8a1a2c259fff099953479165488ccfacd45c6988c00f3981853e116af5366116a0526f1958c0164780dbab949dead073ba57c96116c0527fcb4e29001562a019fcf224ea64b05cf8219d80a62fcd5083c36a3f64aa562b796116e0526f134e443b601946d3decf942ef8e25ec5611580527f80979eba4aaa6790cab1988b9ce4dc7d1feed9644187e718cdb3e24490be14826115a0526f03fab6eec90bfb32f8d6d4990af3a7206115c0527ff96b08bc3c4e5718cec072675d97ec631005f96eb5a2eb820c1e29c98240a31c6115e0526f1324f00c38ca12b35cb9a0d80ca2d319611600527f53c65107d4a9591f6d7df3f13660901d4f01a364013354ad4df0c6c75329c1b0611620526f083d2d9d63a7c380303333a1e4e9e945611640527f11d455c4bfe4b1db2ff3efc988f10132e0757ae479da6b137435e20a400c77fc611660526102726108c2565b61027a610c4f565b610282610e91565b61028a610f56565b610292611016565b61106051604051908152602090f35b5f80fd5b9181601f840112156102a15782359167ffffffffffffffff83116102a1576020808501948460051b0101116102a157565b62461bcd60e51b5f526020600452601b6024527f6c6f616450726f6f663a2050726f6f6620697320696e76616c6964000000000060445260645ffd5b62461bcd60e51b5f526020600452601a6024527f496e76616c6964207075626c696320696e70757473206c656e6774680000000060445260645ffd5b60205f526020805260206040526060526108006080525f5160206111515f395f51905f5260a05260205f60c08160055afa15610389575f5190565b62461bcd60e51b5f52602060045260186024527f6d6f6465787020707265636f6d70696c65206661696c6564000000000000000060445260645ffd5b60205f5260208052602060405260605260406080525f5160206111515f395f51905f5260a05260205f60c08160055afa15610389575f5190565b60205f526020805260206040526060526101006080525f5160206111515f395f51905f5260a05260205f60c08160055afa15610389575f5190565b60205f5260208052602060405260206060527f73eda753299d7d483339d80809a1d80553bda402fffe5bfefffffffeffffffff6080525f5160206111515f395f51905f5260a05260205f60c08160055afa15610389575f5190565b60205f526020805260206040527f476fa2fb6162ffabd84f8612c8b6cc00bd7fdf9c77487ae79733f3a6ba60eaa66060527f73eda753299d7d483339d80809a1d80553bda402fffe5bfefffffffeffffffff6080525f5160206111515f395f51905f5260a05260205f60c08160055afa15610389575f5190565b60205f526020805260206040526060526080525f5160206111515f395f51905f5260a05260205f60c08160055afa15610389575f5190565b610240515f5261026051602052610280516040526102a05160605260805260805f60a081600c5afa610ee051608052610f005160a052610f205160c052610f405160e0526080610ee06101005f600b5afa16156105a057565b62461bcd60e51b5f52602060045260166024527f6731706f696e744d756c416e64416464496e746f44657374000000000000000060445260645ffd5b6102c0515f526102e051602052610300516040526103205160605260805260805f60a081600c5afa610ee051608052610f005160a052610f205160c052610f405160e0526080610ee06101005f600b5afa16156105a057565b611680515f526116a0516020526116c0516040526116e05160605260805260805f60a081600c5afa610ee051608052610f005160a052610f205160c052610f405160e0526080610ee06101005f600b5afa16156105a057565b611580515f526115a0516020526115c0516040526115e05160605260805260805f60a081600c5afa610f6051608052610f805160a052610fa05160c052610fc05160e0526080610f606101005f600b5afa16156105a057565b611600515f5261162051602052611640516040526116605160605260805260805f60a081600c5afa610f6051608052610f805160a052610fa05160c052610fc05160e0526080610f606101005f600b5afa16156105a057565b611680515f526116a0516020526116c0516040526116e05160605260805260805f60a081600c5afa610f6051608052610f805160a052610fa05160c052610fc05160e0526080610f606101005f600b5afa16156105a057565b5f610d4353610d84526064610d40206001610d43536064610d4020610d6452610d4452565b6002610d43535f610d84526048610d40206001600160fd1b031690565b6002610d4353600160e01b610d84526048610d40206001600160fd1b031690565b6002610d4353600160e11b610d84526048610d40206001600160fd1b031690565b6002610d4353600360e01b610d84526048610d40206001600160fd1b031690565b6002610d4353600160e21b610d84526048610d40206001600160fd1b031690565b6002610d4353600560e01b610d84526048610d40206001600160fd1b031690565b6002610d4353600360e11b610d84526048610d40206001600160fd1b031690565b6002610d4353600760e01b610d84526048610d40206001600160fd1b031690565b602a600480355f5160206111515f395f51905f526105c460243560248401356102405260448401356102805260648401356102c05260848401356103005260248101356102605260448101356102a05260648101356102e05260848101356103205260a48401356103405260c48401356103805260e48401356103c05261010484013561040052610124840135610440526101448401356104805260a48101356103605260c48101356103a05260e48101356103e05261010481013561042052610124810135610460526101448101356104a0526101648401356104c052610184840135610500526101a4840135610540526101c4840135610580526101648101356104e052610184810135610520526101a4810135610560526101c48101356105a0526101e48401356105c0526102048401356106005261022484013561064052610244840135610680526102648401356106c052610284840135610700526102a4840135610740526102c4840135610780526101e48101356105e05261020481013561062052610224810135610660526102448101356106a0526102648101356106e052610284810135610720526102a4810135610760526102c48101356107a0526102e48401356107c0526103048401356108005261032484013561084052610344840135610880526102e48101356107e05261030481013561082052610324810135610860526103448101356108a0526103648401356108c052610384840135610900526103a4840135610940526103c4840135610980526103648101356108e052610384810135610920526103a4810135610960526103c48101356109a0526103e48401356109c052610404840135610a0052610424840135610a4052610444840135610a8052610464840135610ac052610484840135610b00526104a4840135610b40526104c4840135610b80526103e48101356109e052610404810135610a2052610424810135610a6052610444810135610aa052610464810135610ae052610484810135610b20526104a4810135610b60526104c4810135610ba0526104e4840135610bc052610504840135610c0052610524840135610c4052610544840135610c80526104e4810135610be052610504810135610c2052610524810135610c6052610544810135610ca0528261056482013506610cc0528261058482013506610ce052826105a482013506610d0052013506610d2052013503610c4a57565b6102d6565b610c5b61034051610799565b610c6761036051610799565b610c7361038051610799565b610c7f6103a051610799565b610c8b6103c051610799565b610c976103e051610799565b610ca361040051610799565b610caf61042051610799565b610cbb61044051610799565b610cc761046051610799565b610cd361048051610799565b610cdf6104a051610799565b610ceb6105c051610799565b610cf76105e051610799565b610d0361060051610799565b610d0f61062051610799565b610d1b61064051610799565b610d2761066051610799565b610d3361068051610799565b610d3f6106a051610799565b610d4b6108c051610799565b610d576108e051610799565b610d6361090051610799565b610d6f61092051610799565b610d776107be565b610dc052610d836107db565b610de052610d8f6107fc565b610e0052610d9f61094051610799565b610dab61096051610799565b610db761098051610799565b610dc36109a051610799565b610dcb61081d565b610e2052610ddb6106c051610799565b610de76106e051610799565b610df361070051610799565b610dff61072051610799565b610e0b61074051610799565b610e1761076051610799565b610e2361078051610799565b610e2f6107a051610799565b610e3761083e565b610ec052610e4361085f565b610e8052610e53610d2051610799565b610e5f610cc051610799565b610e6b610ce051610799565b610e77610d0051610799565b610e7f610880565b610e4052610e8b6108a1565b610e6052565b610ed6610dc051610ed1610de051610ecc610e0051936108c051610ee0526108e051610f005261090051610f205261092051610f4052610547565b6105dc565b610635565b610f1b610dc051610f16610de051610f11610e0051936108c051610f60526108e051610f805261090051610fa05261092051610fc05261068e565b6106e7565b610740565b5f19610f29610ec05161034e565b01610fe0525f19610f3c610e80516103c5565b01611000525f19610f4f610ec0516103ff565b0161102052565b610ec051600181146102a1575f5160206111515f395f51905f52807f73eda753299d7d483339d80809a1d80553bda402fffe5bfeffffffff000000008181610f9d866103ff565b0893086101000980156102a15760205f526020805260206040526060527f73eda753299d7d483339d80809a1d80553bda402fffe5bfefffffffeffffffff6080525f5160206111515f395f51905f5260a05260205f60c08160055afa15610389575f515f5160206111515f395f51905f52910961104052565b604435602060048201350361114b575f5b6020811061112257505061103961043a565b611041610495565b905f5b6020811061109a57505050610ec0515f906001905f905b6020821061106c5750505061106052565b9091925f5160206111515f395f51905f52828160019381888860051b6120000151099008950992019061105b565b815f5f5b602081106110ca5750600192915f5160206111515f395f51905f5291098160051b612000015201611044565b91505f5160206111515f395f51905f52600191818460051b61100001516111147f73eda753299d7d483339d80809a1d80553bda402fffe5bfeffffffff000000008888098a61050f565b90099008910190839161109e565b8060019160051b5f5160206111515f395f51905f52602482860101350690611000015201611027565b61031256fe73eda753299d7d483339d80809a1d80553bda402fffe5bfeffffffff00000001a26469706673582212200273ee3d6a4a8e12b91a6db74bf5d491470bcadc6b929b22f18b608e7d7766b464736f6c634300081c0033","linkReferences":{}},"methodIdentifiers":{"verify(uint128[],uint256[],uint256[])":"4cebd174"},"id":19}