{"abi":[{"type":"function","name":"verify","inputs":[{"name":"","type":"uint128[]","internalType":"uint128[]"},{"name":"","type":"uint256[]","internalType":"uint256[]"}],"outputs":[{"name":"result","type":"bytes32","internalType":"bytes32"}],"stateMutability":"view"}],"bytecode":{"object":"0x60808060405234601557611edf908161001a8239f35b5f80fdfe60806040526004361015610011575f80fd5b5f3560e01c6306922ed614610024575f80fd5b346102a85760403660031901126102a85760043567ffffffffffffffff81116102a8576100559036906004016102ac565b505060243567ffffffffffffffff81116102a8576100779036906004016102ac565b50506f10fdd463e7193b5cb2234608d14b8b19611500527fdb6788aaacb521daaa2763c1f7ca9972031d76b5558a69c8985f25e098c577c4611520526f07952ad5ac4b627986b3b87edb58b3c1611540527fcd1d2cef4a4563c2c1a542c801f97b504a15a94310084282052c3506a39c3414611560526f097b16a0adf5f112a3aea1fadd03c33c611580527f1df8944f0db2a6d2bcf77aad2199f61c87d2abb6296f56f3c761aaa3e49c9b646115a0526f0ff5f37c65588889739b20d4f383792b6115c0527ffef7b0d38d0143f1919fc0417a1f2d689b3fc3dac384e5a90a4c4270b200bf8c6115e0526f0766f19c78578fdf77d09bb08ec940ad611600527fc98f956efe605aa52519ecdbdd2258763760787f3234533fa4dde15f5b94a99b611620526f0fbb9932fc437ad799b2f07360e1dddb611640527f2a9d76a4c6019403f5379ec18a6b8b5f38533ae2dce1e557ab59b025a343223b611660526f12b72b8a5a5d7613f69175b6d9cbdfe2611680527fccbad6739d6ab455a7ad91a807b66a8d907e4cc936250fe2a79038d2bc0727726116a0526f0f0b72ad561acc45a5d55046986dbb6b6116c0527f2a3daad1efd75da947a919edd9b5bd10f38cd1e5317d49a46cc41a85277116876116e052610251611184565b610259611511565b610261611753565b610269611849565b610271611907565b610279611980565b6102816119e1565b610289611c82565b610291611ce9565b610299611d50565b61106051604051908152602090f35b5f80fd5b9181601f840112156102a85782359167ffffffffffffffff83116102a8576020808501948460051b0101116102a857565b62461bcd60e51b5f526020600452601b6024527f6c6f616450726f6f663a2050726f6f6620697320696e76616c6964000000000060445260645ffd5b60205f526020805260206040526060526108006080525f516020611e6a5f395f51905f5260a05260205f60c08160055afa15610354575f5190565b62461bcd60e51b5f52602060045260186024527f6d6f6465787020707265636f6d70696c65206661696c6564000000000000000060445260645ffd5b60205f5260208052602060405260605260406080525f516020611e6a5f395f51905f5260a05260205f60c08160055afa15610354575f5190565b60205f526020805260206040526060526102006080525f516020611e6a5f395f51905f5260a05260205f60c08160055afa15610354575f5190565b60205f5260208052602060405260036060526080525f516020611e6a5f395f51905f5260a05260205f60c08160055afa15610354575f5190565b60205f5260208052602060405260605260046080525f516020611e6a5f395f51905f5260a05260205f60c08160055afa15610354575f5190565b610340515f5261036051602052610380516040526103a051606052608052608061148060a05f600c5afa156104aa57565b62461bcd60e51b5f526020600452601e6024527f6731706f696e744d756c496e746f446573743a2047314d534d206661696c656460445260645ffd5b6105c0515f526105e0516020526106005160405261062051606052608052608061148060a05f600c5afa156104aa57565b610640515f5261066051602052610680516040526106a051606052608052608061148060a05f600c5afa156104aa57565b611500515f52611520516020526115405160405261156051606052608052608061118060a05f600c5afa156104aa57565b610ee0515f52610f0051602052610f2051604052610f4051606052608052608061148060a05f600c5afa156104aa57565b6106c0515f526106e0516020526107005160405261072051606052608052608061148060a05f600c5afa156104aa57565b610740515f5261076051602052610780516040526107a051606052608052608061148060a05f600c5afa156104aa57565b611480515f526114a0516020526114c0516040526114e051606052608052608061120060a05f600c5afa156104aa57565b6107c0515f526107e0516020526108005160405261082051606052608052608061128060a05f600c5afa156104aa57565b611080515f526110a0516020526110c0516040526110e051606052611480516080526114a05160a0526114c05160c0526114e05160e05260806110806101005f600b5afa156106b957565b62461bcd60e51b5f526020600452601e6024527f6731706f696e74416464496e746f446573743a204731414444206661696c656460445260645ffd5b611100515f52611120516020526111405160405261116051606052611200516080526112205160a0526112405160c0526112605160e05260806112006101005f600b5afa156106b957565b611200515f52611220516020526112405160405261126051606052611280516080526112a05160a0526112c05160c0526112e05160e05260806113006101005f600b5afa156106b957565b610240515f5261026051602052610280516040526102a05160605260805260805f60a081600c5afa610ee051608052610f005160a052610f205160c052610f405160e0526080610ee06101005f600b5afa16156107e457565b62461bcd60e51b5f52602060045260166024527f6731706f696e744d756c416e64416464496e746f44657374000000000000000060445260645ffd5b6102c0515f526102e051602052610300516040526103205160605260805260805f60a081600c5afa610ee051608052610f005160a052610f205160c052610f405160e0526080610ee06101005f600b5afa16156107e457565b611680515f526116a0516020526116c0516040526116e05160605260805260805f60a081600c5afa610ee051608052610f005160a052610f205160c052610f405160e0526080610ee06101005f600b5afa16156107e457565b611580515f526115a0516020526115c0516040526115e05160605260805260805f60a081600c5afa610f6051608052610f805160a052610fa05160c052610fc05160e0526080610f606101005f600b5afa16156107e457565b611600515f5261162051602052611640516040526116605160605260805260805f60a081600c5afa610f6051608052610f805160a052610fa05160c052610fc05160e0526080610f606101005f600b5afa16156107e457565b611680515f526116a0516020526116c0516040526116e05160605260805260805f60a081600c5afa610f6051608052610f805160a052610fa05160c052610fc05160e0526080610f606101005f600b5afa16156107e457565b610f60515f52610f8051602052610fa051604052610fc05160605260805260805f60a081600c5afa611180516080526111a05160a0526111c05160c0526111e05160e05260806111806101005f600b5afa16156107e457565b610940515f5261096051602052610980516040526109a05160605260805260805f60a081600c5afa611180516080526111a05160a0526111c05160c0526111e05160e05260806111806101005f600b5afa16156107e457565b611680515f526116a0516020526116c0516040526116e05160605260805260805f60a081600c5afa611180516080526111a05160a0526111c05160c0526111e05160e05260806111806101005f600b5afa16156107e457565b610a40515f52610a6051602052610a8051604052610aa05160605260805260805f60a081600c5afa611380516080526113a05160a0526113c05160c0526113e05160e05260806113806101005f600b5afa16156107e457565b610b40515f52610b6051602052610b8051604052610ba05160605260805260805f60a081600c5afa611380516080526113a05160a0526113c05160c0526113e05160e05260806113806101005f600b5afa16156107e457565b6109c0515f526109e051602052610a0051604052610a205160605260805260805f60a081600c5afa611400516080526114205160a0526114405160c0526114605160e05260806114006101005f600b5afa16156107e457565b610ac0515f52610ae051602052610b0051604052610b205160605260805260805f60a081600c5afa611400516080526114205160a0526114405160c0526114605160e05260806114006101005f600b5afa16156107e457565b610840515f5261086051602052610880516040526108a05160605260805260805f60a081600c5afa611280516080526112a05160a0526112c05160c0526112e05160e05260806112806101005f600b5afa16156107e457565b610a40515f52610a6051602052610a8051604052610aa05160605260805260805f60a081600c5afa611280516080526112a05160a0526112c05160c0526112e05160e05260806112806101005f600b5afa16156107e457565b6109c0515f526109e051602052610a0051604052610a205160605260805260805f60a081600c5afa611280516080526112a05160a0526112c05160c0526112e05160e05260806112806101005f600b5afa16156107e457565b610b40515f52610b6051602052610b8051604052610ba05160605260805260805f60a081600c5afa611280516080526112a05160a0526112c05160c0526112e05160e05260806112806101005f600b5afa16156107e457565b610ac0515f52610ae051602052610b0051604052610b205160605260805260805f60a081600c5afa611280516080526112a05160a0526112c05160c0526112e05160e05260806112806101005f600b5afa16156107e457565b915f925f928015821516610f19575f516020611e8a5f395f51905f528110610eeb575b5f516020611e8a5f395f51905f528114610ecd575b5f516020611e8a5f395f51905f528111610e8a575b50505f516020611e8a5f395f51905f5282146f1a0111ea397fe69a4b1ba7b6434bacd7841416610e8257565b5f9250829150565b6f1a0111ea397fe69a4b1ba7b6434bacd6919091039350197f64774b84f38512bf6730d2a0f6b0f6241eabfffeb153ffffb9feffffffffaaac0191505f80610e56565b6f1a0111ea397fe69a4b1ba7b6434bacd782900394505f9350610e41565b93509150825f516020611e8a5f395f51905f520391806f1a0111ea397fe69a4b1ba7b6434bacd70393610e2c565b505f935083925050565b611080515f526110a0516020526110c0516040526110e051606052610f4e6104a05161048051610e09565b90610440516080526104605160a05260c05260e05260806110806101005f600b5afa15610f7757565b62461bcd60e51b5f526020600452601c6024527f706f696e7453756241737369676e3a204731414444206661696c65640000000060445260645ffd5b611080515f526110a0516020526110c0516040526110e051606052610fde6114e0516114c051610e09565b90611480516080526114a05160a05260c05260e05260806110806101005f600b5afa15610f7757565b611180515f526111a0516020526111c0516040526111e0516060526110326114e0516114c051610e09565b90611480516080526114a05160a05260c05260e05260806111806101005f600b5afa15610f7757565b5f610d4353610d84526064610d40206001610d43536064610d4020610d6452610d4452565b6002610d43535f610d84526048610d40206001600160fd1b031690565b6002610d4353600160e01b610d84526048610d40206001600160fd1b031690565b6002610d4353600160e11b610d84526048610d40206001600160fd1b031690565b6002610d4353600360e01b610d84526048610d40206001600160fd1b031690565b6002610d4353600160e21b610d84526048610d40206001600160fd1b031690565b6002610d4353600560e01b610d84526048610d40206001600160fd1b031690565b6002610d4353600360e11b610d84526048610d40206001600160fd1b031690565b6002610d4353600760e01b610d84526048610d40206001600160fd1b031690565b602a600480355f516020611e6a5f395f51905f526105c460243560248401356102405260448401356102805260648401356102c05260848401356103005260248101356102605260448101356102a05260648101356102e05260848101356103205260a48401356103405260c48401356103805260e48401356103c05261010484013561040052610124840135610440526101448401356104805260a48101356103605260c48101356103a05260e48101356103e05261010481013561042052610124810135610460526101448101356104a0526101648401356104c052610184840135610500526101a4840135610540526101c4840135610580526101648101356104e052610184810135610520526101a4810135610560526101c48101356105a0526101e48401356105c0526102048401356106005261022484013561064052610244840135610680526102648401356106c052610284840135610700526102a4840135610740526102c4840135610780526101e48101356105e05261020481013561062052610224810135610660526102448101356106a0526102648101356106e052610284810135610720526102a4810135610760526102c48101356107a0526102e48401356107c0526103048401356108005261032484013561084052610344840135610880526102e48101356107e05261030481013561082052610324810135610860526103448101356108a0526103648401356108c052610384840135610900526103a4840135610940526103c4840135610980526103648101356108e052610384810135610920526103a4810135610960526103c48101356109a0526103e48401356109c052610404840135610a0052610424840135610a4052610444840135610a8052610464840135610ac052610484840135610b00526104a4840135610b40526104c4840135610b80526103e48101356109e052610404810135610a2052610424810135610a6052610444810135610aa052610464810135610ae052610484810135610b20526104a4810135610b60526104c4810135610ba0526104e4840135610bc052610504840135610c0052610524840135610c4052610544840135610c80526104e4810135610be052610504810135610c2052610524810135610c6052610544810135610ca0528261056482013506610cc0528261058482013506610ce052826105a482013506610d0052013506610d205201350361150c57565b6102dd565b61151d6103405161105b565b6115296103605161105b565b6115356103805161105b565b6115416103a05161105b565b61154d6103c05161105b565b6115596103e05161105b565b6115656104005161105b565b6115716104205161105b565b61157d6104405161105b565b6115896104605161105b565b6115956104805161105b565b6115a16104a05161105b565b6115ad6105c05161105b565b6115b96105e05161105b565b6115c56106005161105b565b6115d16106205161105b565b6115dd6106405161105b565b6115e96106605161105b565b6115f56106805161105b565b6116016106a05161105b565b61160d6108c05161105b565b6116196108e05161105b565b6116256109005161105b565b6116316109205161105b565b611639611080565b610dc05261164561109d565b610de0526116516110be565b610e00526116616109405161105b565b61166d6109605161105b565b6116796109805161105b565b6116856109a05161105b565b61168d6110df565b610e205261169d6106c05161105b565b6116a96106e05161105b565b6116b56107005161105b565b6116c16107205161105b565b6116cd6107405161105b565b6116d96107605161105b565b6116e56107805161105b565b6116f16107a05161105b565b6116f9611100565b610ec052611705611121565b610e8052611715610d205161105b565b611721610cc05161105b565b61172d610ce05161105b565b611739610d005161105b565b611741611142565b610e405261174d611163565b610e6052565b611791610dc0516108c051610ee0526108e051610f005261090051610f205261092051610f40526117838161078b565b61178c81610820565b610879565b6117cf610dc0516108c051610f60526108e051610f805261090051610fa05261092051610fc0526117c1816108d2565b6117ca8161092b565b610984565b5f196117dd610ec051610319565b01610fe0525f196117f0610e8051610390565b01611000525f19611803610ec0516103ca565b0161102052610ec05180156102a8575f1961181d826103ca565b01905f190180156102a8575f516020611e6a5f395f51905f5290610200099081156102a8570461104052565b5f600435610ec051905f915b601f83106118665750505061106052565b909192600161187485610405565b5f905b601f82106118ad5750506001915f516020611e6a5f395f51905f528092816106e48960051b890101350609900893019190611855565b90918683146118fe576118bf83610405565b5f516020611e6a5f395f51905f528082850301069182156102a8576001925f516020611e6a5f395f51905f528080948a030106049009925b0190611877565b916001906118f7565b610d2051610340515f5261036051602052610380516040526103a051606052608052608061108060a05f600c5afa156104aa57611942610f23565b61194e610e4051610479565b61195661066e565b611962610fe0516104e6565b61196a610fb3565b61197661100051610517565b61197e610fb3565b565b610e60516119af5f516020611e6a5f395f51905f5280610e4051936119a48561043f565b90096001089161043f565b50610c40515f52610c6051602052610c8051604052610ca051606052608052608061110060a05f600c5afa156104aa57565b610e2051610e4051905f516020611e6a5f395f51905f52828009915f516020611e6a5f395f51905f52838209610e60515f516020611e6a5f395f51905f52818009610ec0517f73eda753299d7d483339d80809a1d80553bda402fffe5bfeffffffff000000005f516020611e6a5f395f51905f529108610cc05194610ce05196610d005198611040518a898b610d2051976110605196611020519461100051965f516020611e6a5f395f51905f52908309915f516020611e6a5f395f51905f52908909945f516020611e6a5f395f51905f525f1982018a09611ac290610548565b5f516020611e6a5f395f51905f52838508905f516020611e6a5f395f51905f52908709905f516020611e6a5f395f51905f529109611aff906109dd565b5f516020611e6a5f395f51905f529109915f516020611e6a5f395f51905f529109905f516020611e6a5f395f51905f5291085f516020611e6a5f395f51905f529109611b4a90610579565b611b52611007565b5f516020611e6a5f395f51905f52908309611b6c906105aa565b611b74611007565b5f516020611e6a5f395f51905f529109611b8d906105db565b611b95611007565b5f516020611e6a5f395f51905f528486085f516020611e6a5f395f51905f52908708611bc090610a36565b5f516020611e6a5f395f51905f52868309905f516020611e6a5f395f51905f529109915f516020611e6a5f395f51905f529109905f516020611e6a5f395f51905f529108955f516020611e6a5f395f51905f529109935f516020611e6a5f395f51905f529109915f516020611e6a5f395f51905f529109905f516020611e6a5f395f51905f529108905f516020611e6a5f395f51905f529108905f516020611e6a5f395f51905f5291085f516020611e6a5f395f51905f520361197e90610a8f565b610e60515f516020611e6a5f395f51905f528180096107c0515f526107e051602052610800516040526108205160605281608052608061138060a05f600c5afa156104aa5761197e9181611ce35f516020611e6a5f395f51905f5293610ae8565b09610b41565b610e60515f516020611e6a5f395f51905f52818009610840515f5261086051602052610880516040526108a05160605281608052608061140060a05f600c5afa156104aa5761197e9181611d4a5f516020611e6a5f395f51905f5293610b9a565b09610bf3565b610e6051611080515f526110a0516020526110c0516040526110e051606052611180516080526111a05160a0526111c05160c0526111e05160e05260806114806101005f600b5afa156106b957611da69061060c565b611dae6106f5565b611e615f516020611e6a5f395f51905f52610e605181610ec051610e805192611e5a837f1907a56e80f82b2df675522e37ad4eca1c510ebfb4543a3efb350dbef02a116e5193817f199cdaee7b3c79d6566009b5882952d6a41e85011d426b52b891fa3f982b68c55195611e52828a81898009611e3d8383818d85099c611e37838c830961063d565b09610c4c565b611e4c83888188850909610ca5565b09610cfe565b850909610d57565b0909610db0565b61197e61074056fe73eda753299d7d483339d80809a1d80553bda402fffe5bfeffffffff0000000164774b84f38512bf6730d2a0f6b0f6241eabfffeb153ffffb9feffffffffaaaba2646970667358221220841a530078380a1c56731478ab1ed668e12b12d58fe5de7c0c31c1528b45fecd64736f6c634300081c0033","linkReferences":{}},"methodIdentifiers":{"verify(uint128[],uint256[])":"06922ed6"},"id":19}