{"abi":[{"type":"function","name":"verify","inputs":[{"name":"","type":"uint256[]","internalType":"uint256[]"},{"name":"","type":"uint256[]","internalType":"uint256[]"}],"outputs":[{"name":"final_result","type":"bool","internalType":"bool"}],"stateMutability":"view"}],"bytecode":{"object":"0x6080806040523461001657612b58908161001b8239f35b5f80fdfe60806040526004361015610011575f80fd5b5f3560e01c63b864f5a914610024575f80fd5b346102a75760403660031901126102a75767ffffffffffffffff6004358181116102a7576100569036906004016102ab565b50506024359081116102a7576100709036906004016102ab565b50506f13d25bb3f810de6e1dcf435f7561fdb1619500527f627678dae6390a7b01155b74c45a42573788dd405ee72d93ca771aac3125197f619520526ede773cd3e222498dc98712a3fa6a60619540527fef5559e0ee1fc5ad82792cf4671c7a20acb8150725fbf9f6bda2bba017e1fd66619560526f028f8a44ae00ff0e6660d2cee552f153619680527f745dbd5d8239a8b21eb337a0344fdf5fd9fe1dfaa6a8248c5a4d44b2ba3e0fe06196a0526f0dfd148cd714beb02387ccaa7f37dad66196c0527fad58e6704246d96d642b0764c104967e8914c8822ecc689a90bfeb47db5a114e6196e0526f17f979d9641d6c78c2b2f276567c9aa9619580527f373f99a477cee235ed39228d7c7a478038eba172ec9f30f05b341f8659e2f7176195a0526f0d62461a124444f79d00ea8ee1c4a04d6195c0527f2329a34bbfd42609292ffdd40d46efc2e5507d50c6e1dda06d2c11938aae6a826195e0526e6490a3bc4eff19e3d5866686a5a611619600527fa311af5dadf553088a95cb809ae08d66f4c63a230f7e2471b6df2ee036cc7b96619620526f196f181f0cbf214e203c0fcb6cd574fb619640527f42625bd95f626ea8629a0dcc327fda7d6dbf8218d78a510891d095b266344af36196605261024861111c565b6102506114ae565b6102586116f0565b6102606117aa565b6102686117fe565b6102706119c0565b610278611a9e565b610280611b18565b610288611e12565b610290611eb4565b610298611f56565b6102a061206d565b5f5260205ff35b5f80fd5b9181601f840112156102a75782359167ffffffffffffffff83116102a7576020808501948460051b0101116102a757565b62461bcd60e51b5f526020600452601c6024527f706f696e7453756241737369676e3a204731414444206661696c65640000000060445260645ffd5b62461bcd60e51b5f526020600452601b6024527f6c6f616450726f6f663a2050726f6f6620697320696e76616c6964000000000060445260645ffd5b602090815f52818052816040526060526104006080525f80516020612ac383398151915260a052805f60c08160055afa1561038f57505f5190565b62461bcd60e51b5f5260045260186024527f6d6f6465787020707265636f6d70696c65206661696c6564000000000000000060445260645ffd5b602090815f528180528160405260605260406080525f80516020612ac383398151915260a052805f60c08160055afa1561038f57505f5190565b602090815f52818052816040526060527f73eda753299d7d483339d80809a1d80553bda402fffe5bfefffffffeffffffff6080525f80516020612ac383398151915260a052805f60c08160055afa1561038f57505f5190565b602090815f5281805281604052606052608080525f80516020612ac383398151915260a052805f60c08160055afa1561038f57505f5190565b6020805f528080528060405260806060527f73eda753299d7d483339d80809a1d80553bda402fffe5bfefffffffeffffffff6080525f80516020612ac383398151915260a052805f60c08160055afa1561038f57505f5190565b602090815f52818052816040527f07d0c802a94a946e8cbe2437f0b4b276501dff643be95635b750da4cab28e2086060526080525f80516020612ac383398151915260a052805f60c08160055afa1561038f57505f5190565b602090815f528180528160405260605260046080525f80516020612ac383398151915260a052805f60c08160055afa1561038f57505f5190565b618340515f5261836051602052618380516040526183a051606052608052608061908060a05f600c5afa156105b357565b62461bcd60e51b5f526020600452601e6024527f6731706f696e744d756c496e746f446573743a2047314d534d206661696c656460445260645ffd5b619680515f526196a0516020526196c0516040526196e051606052608052608061948060a05f600c5afa156105b357565b6080906194809081515f526194a0516020526194c0516040526194e051606052825260a05f600c5afa156105b357565b6185c0515f526185e0516020526186005160405261862051606052608052608061948060a05f600c5afa156105b357565b618640515f5261866051602052618680516040526186a051606052608052608061948060a05f600c5afa156105b357565b619500515f52619520516020526195405160405261956051606052608052608061918060a05f600c5afa156105b357565b618f60515f52618f8051602052618fa051604052618fc051606052608052608061948060a05f600c5afa156105b357565b618ee0515f52618f0051602052618f2051604052618f4051606052608052608061948060a05f600c5afa156105b357565b6186c0515f526186e0516020526187005160405261872051606052608052608061948060a05f600c5afa156105b357565b618740515f5261876051602052618780516040526187a051606052608052608061948060a05f600c5afa156105b357565b618940515f5261896051602052618980516040526189a051606052608052608061948060a05f600c5afa156105b357565b6187c0515f526187e0516020526188005160405261882051606052608052608061928060a05f600c5afa156105b357565b608061908080515f526190a0516020526190c0516040526190e0516060526194805182526194a05160a0526194c05160c0526194e05160e0526101005f600b5afa1561085157565b62461bcd60e51b5f526020600452601e6024527f6731706f696e74416464496e746f446573743a204731414444206661696c656460445260645ffd5b608061918080515f526191a0516020526191c0516040526191e0516060526194805182526194a05160a0526194c05160c0526194e05160e0526101005f600b5afa1561085157565b619100515f52619120516020526191405160405261916051606052619480516080526194a05160a0526194c05160c0526194e05160e05260806192006101005f600b5afa1561085157565b619200515f52619220516020526192405160405261926051606052619280516080526192a05160a0526192c05160c0526192e05160e05260806193006101005f600b5afa1561085157565b618240515f5261826051602052618280516040526182a05160605260805260805f60a081600c5afa6080618ee080518252618f005160a052618f205160c052618f405160e0526101005f600b5afa16156109c157565b62461bcd60e51b5f52602060045260166024527f6731706f696e744d756c416e64416464496e746f44657374000000000000000060445260645ffd5b6182c0515f526182e051602052618300516040526183205160605260805260805f60a081600c5afa6080618ee080518252618f005160a052618f205160c052618f405160e0526101005f600b5afa16156109c157565b619680515f526196a0516020526196c0516040526196e05160605260805260805f60a081600c5afa6080618ee080518252618f005160a052618f205160c052618f405160e0526101005f600b5afa16156109c157565b619580515f526195a0516020526195c0516040526195e05160605260805260805f60a081600c5afa6080618f6080518252618f805160a052618fa05160c052618fc05160e0526101005f600b5afa16156109c157565b619600515f5261962051602052619640516040526196605160605260805260805f60a081600c5afa6080618f6080518252618f805160a052618fa05160c052618fc05160e0526101005f600b5afa16156109c157565b619680515f526196a0516020526196c0516040526196e05160605260805260805f60a081600c5afa6080618f6080518252618f805160a052618fa05160c052618fc05160e0526101005f600b5afa16156109c157565b618b40515f52618b6051602052618b8051604052618ba05160605260805260805f60a081600c5afa6080619380805182526193a05160a0526193c05160c0526193e05160e0526101005f600b5afa16156109c157565b618ac0515f52618ae051602052618b0051604052618b205160605260805260805f60a081600c5afa6080619400805182526194205160a0526194405160c0526194605160e0526101005f600b5afa16156109c157565b618840515f5261886051602052618880516040526188a05160605260805260805f60a081600c5afa6080619280805182526192a05160a0526192c05160c0526192e05160e0526101005f600b5afa16156109c157565b618a40515f52618a6051602052618a8051604052618aa05160605260805260805f60a081600c5afa6080619280805182526192a05160a0526192c05160c0526192e05160e0526101005f600b5afa16156109c157565b6189c0515f526189e051602052618a0051604052618a205160605260805260805f60a081600c5afa6080619280805182526192a05160a0526192c05160c0526192e05160e0526101005f600b5afa16156109c157565b618b40515f52618b6051602052618b8051604052618ba05160605260805260805f60a081600c5afa6080619280805182526192a05160a0526192c05160c0526192e05160e0526101005f600b5afa16156109c157565b618ac0515f52618ae051602052618b0051604052618b205160605260805260805f60a081600c5afa6080619280805182526192a05160a0526192c05160c0526192e05160e0526101005f600b5afa16156109c157565b608061908080515f526190a0516020526190c0516040526190e0516060526184405182526184605160a0526184a05161848051905f905f80516020612b03833981519152818110600114610e835703915b016f1a0111ea397fe69a4b1ba7b6434bacd70360c05260e0526101005f600b5afa15610e7e57565b6102dc565b039160019150610e56565b608061908080515f526190a0516020526190c0516040526190e0516060526194805182526194a05160a0526194e0516194c051905f905f80516020612b03833981519152818110600114610e83570391016f1a0111ea397fe69a4b1ba7b6434bacd70360c05260e0526101005f600b5afa15610e7e57565b608061910080515f526191205160205261914051604052619160516060526194805182526194a05160a0526194e0516194c051905f905f80516020612b03833981519152818110600114610e83570391016f1a0111ea397fe69a4b1ba7b6434bacd70360c05260e0526101005f600b5afa15610e7e57565b608061918080515f526191a0516020526191c0516040526191e0516060526194805182526194a05160a0526194e0516194c051905f905f80516020612b03833981519152818110600114610e83570391016f1a0111ea397fe69a4b1ba7b6434bacd70360c05260e0526101005f600b5afa15610e7e57565b618d43905f8253618d84526064618d406001828220935320618d6452618d4452565b6002618d43535f618d84526048618d40206001600160fd1b031690565b6002618d4353600160e01b618d84526048618d40206001600160fd1b031690565b6002618d4353600160e11b618d84526048618d40206001600160fd1b031690565b6002618d4353600360e01b618d84526048618d40206001600160fd1b031690565b6002618d4353600160e21b618d84526048618d40206001600160fd1b031690565b6002618d4353600560e01b618d84526048618d40206001600160fd1b031690565b6002618d4353600360e11b618d84526048618d40206001600160fd1b031690565b6002618d4353600760e01b618d84526048618d40206001600160fd1b031690565b60586004803560248101356182405260448101356182605260648101356182805260848101356182a05260a48101356182c05260c48101356182e05260e481013561830052610104810135618320526101248101356183405261014481013561836052610164810135618380526101848101356183a0526101a48101356183c0526101c48101356183e0526101e481013561840052610204810135618420526102248101356184405261024481013561846052610264810135618480526102848101356184a0526102a48101356184c0526102c48101356184e0526102e481013561850052610304810135618520526103248101356185405261034481013561856052610364810135618580526103848101356185a0526103a48101356185c0526103c48101356185e0526103e481013561860052610404810135618620526104248101356186405261044481013561866052610464810135618680526104848101356186a0526104a48101356186c0526104c48101356186e0526104e481013561870052610504810135618720526105248101356187405261054481013561876052610564810135618780526105848101356187a0526105a48101356187c0526105c48101356187e0526105e481013561880052610604810135618820526106248101356188405261064481013561886052610664810135618880526106848101356188a0526106a48101356188c0526106c48101356188e0526106e481013561890052610704810135618920526107248101356189405261074481013561896052610764810135618980526107848101356189a0526107a4810135618a40526107c4810135618a60526107e4810135618a8052610804810135618aa0526108248101356189c0526108448101356189e052610864810135618a0052610884810135618a20526108a4810135618b40526108c4810135618b60526108e4810135618b8052610904810135618ba052610924810135618ac052610944810135618ae052610964810135618b0052610984810135618b20526109a4810135618bc0526109c4810135618be0526109e4810135618c0052610a04810135618c2052610a24810135618c4052610a44810135618c6052610a64810135618c8052610a84810135618ca0525f80516020612ac383398151915280610aa483013506618cc05280610ac483013506618ce05280610ae483013506618d0052610b0482013506618d20520135036114a957565b610318565b6114ba61834051610ff6565b6114c661836051610ff6565b6114d261838051610ff6565b6114de6183a051610ff6565b6114ea6183c051610ff6565b6114f66183e051610ff6565b61150261840051610ff6565b61150e61842051610ff6565b61151a61844051610ff6565b61152661846051610ff6565b61153261848051610ff6565b61153e6184a051610ff6565b61154a6185c051610ff6565b6115566185e051610ff6565b61156261860051610ff6565b61156e61862051610ff6565b61157a61864051610ff6565b61158661866051610ff6565b61159261868051610ff6565b61159e6186a051610ff6565b6115aa6188c051610ff6565b6115b66188e051610ff6565b6115c261890051610ff6565b6115ce61892051610ff6565b6115d6611018565b618dc0526115e2611035565b618de0526115ee611056565b618e00526115fe61894051610ff6565b61160a61896051610ff6565b61161661898051610ff6565b6116226189a051610ff6565b61162a611077565b618e205261163a6186c051610ff6565b6116466186e051610ff6565b61165261870051610ff6565b61165e61872051610ff6565b61166a61874051610ff6565b61167661876051610ff6565b61168261878051610ff6565b61168e6187a051610ff6565b611696611098565b618ec0526116a26110b9565b618e80526116b2618d2051610ff6565b6116be618cc051610ff6565b6116ca618ce051610ff6565b6116d6618d0051610ff6565b6116de6110da565b618e40526116ea6110fb565b618e6052565b611773618dc061176e8151611769618de0805192618e009384516188c0978851618ee05261174a6188e0928351618f0052611745618900958651618f2052611740618920988951618f405261096b565b6109fd565b610a53565b51935195519751618f605251618f805251618fa05251618fc052610aa9565b610aff565b610b55565b5f196117a3618ec0826117868251610354565b01618fe05282611798618e80516103c9565b016190005251610354565b0161902052565b618ec051600181146102a7575f80516020612ac38339815191529081805f80516020612ae383398151915281816117e086610354565b0893086104000980156102a7576117f690610403565b900961904052565b618ec05160248035905f80516020612ac383398151915292835f80516020612ae383398151915261182e8361045c565b08908115611964575b9084925f92611844610495565b955f925f5b60808110611921575050505f915b80831061186957505050090961906052565b918095506006949193941b6120208161200001519101519060019060108110806118e3575b156118d3575b5088818103860880156118c457899283600195936118b28294610403565b92090990089401909186949392611857565b50506190605250505050505050565b6118dd91506104ef565b5f611894565b5f5b8b8382106118f457505061188e565b7f07d0c802a94a946e8cbe2437f0b4b276501dff643be95635b750da4cab28e208600192950993016118e5565b90809293959697508160051b8401013580611947575b5060010190889695949291611849565b600685901b61200081018390526120200152600193840193611937565b60015f815b6080821061197957505050611837565b8084146119ad57877f07d0c802a94a946e8cbe2437f0b4b276501dff643be95635b750da4cab28e208849209910190611969565b5093955050505060051b01013561906052565b6119de618d206119d08151610582565b6119d8610e05565b516105ef565b6183c0515f526183e05160205261840051604052618420516060526080619480805182526194a05160a0526194e0516194c051905f905f80516020612b03833981519152818110600114611a935703915b016f1a0111ea397fe69a4b1ba7b6434bacd70360c05260e0526101005f600b5afa15610e7e57611a61618e4051610620565b611a69610809565b611a75618fe051610650565b611a7d610e8e565b611a8961900051610681565b611a91610e8e565b565b039160019150611a2f565b618e6051618e405190619060515f80516020612ac38339815191528092611ad48280611ac988610548565b840960010895610548565b90090990618c40515f52618c6051602052618c8051604052618ca051606052608052608061910060a05f600c5afa156105b357611b10906105ef565b611a91610f06565b618e2051618e4051618e605190618ec0515f80516020612ae38339815191525f80516020612ac3833981519152910890618cc05190618ce05192618d00519561904051619020519161900051935f80516020612ac38339815191525f80516020612ae383398151915288085f80516020612ac3833981519152878009905f80516020612ac38339815191529109611bae906106b2565b815f80516020612ac3833981519152878009905f80516020612ac38339815191529109905f80516020612ac383398151915291095f80516020612ac3833981519152878209611bfc906106e3565b87611c0561088d565b5f80516020612ac38339815191529109611c1e90610714565b611c26610f7e565b805f80516020612ac383398151915291095f80516020612ac3833981519152858009905f80516020612ac38339815191529109905f80516020612ac383398151915291095f80516020612ac3833981519152858209611c84906106e3565b87611c8d61088d565b5f80516020612ac38339815191529109611ca690610714565b611cae610f7e565b5f80516020612ac3833981519152838009905f80516020612ac38339815191529109611cd990610745565b611ce1610f7e565b5f80516020612ac3833981519152828009905f80516020612ac38339815191529109611d0c90610776565b611d14610f7e565b5f80516020612ac38339815191528180095f80516020612ac3833981519152908209611d3f906107a7565b611d4761088d565b5f80516020612ac38339815191528180095f80516020612ac38339815191529109905f80516020612ac38339815191529109611d82906105ef565b611d8a610f7e565b611d93826107a7565b611d9b61088d565b5f80516020612ac3833981519152908209611db5906105ef565b611dbd610f7e565b5f80516020612ac3833981519152818009611dd7906107a7565b611ddf61088d565b805f80516020612ac38339815191529109905f80516020612ac38339815191529109611e0a906105ef565b611a91610f7e565b618e60515f80516020612ac383398151915280828009916187c0515f526187e0516020526188005160405261882051606052608081815261938090808260a05f600c5afa156105b357618a40515f52618a6051602052618a8051604052618aa051606052848152805f60a081600c5afa91805182526193a05160a0526193c05160c0526193e05160e0526101005f600b5afa16156109c157611a919209610bab565b618e60515f80516020612ac38339815191528082800991618840515f5261886051602052618880516040526188a051606052608081815261940090808260a05f600c5afa156105b3576189c0515f526189e051602052618a0051604052618a2051606052848152805f60a081600c5afa91805182526194205160a0526194405160c0526194605160e0526101005f600b5afa16156109c157611a919209610c01565b618e608051619080515f526190a0516020526190c0516040526190e051606052619180516080526191a05160a0526191c05160c0526191e05160e05260806194806101005f600b5afa156108515761206591611fb461205e92610620565b611fbc6108d5565b51618ec0517f199cdaee7b3c79d6566009b5882952d6a41e85011d426b52b891fa3f982b68c5618e8051925f80516020612ac3833981519152948580948180858009612056828a7f2bcd9508a3dad316105f067219141f4450a32c41aa67e0beb0ad80034eb71aa6936120418383818d85099c61203b838c83096107d8565b09610c57565b61205083888188850909610cad565b09610d03565b850909610d59565b0909610daf565b611a91610920565b619300515f526193205160205261934051604052619360516060526f0890855e3092cc1da5063db0da3f1f6d6080527fa30581ac6941b60f6a40d1c3295374f6399acd44d9f433265d13ee57462d11dc60a0526f1062cb3c7e229c00647fdc4cdf7090f760c0527f74a21b82d44d94698289654631255c5edcd1c2e67af02485c565c52fed895fc260e0526f118bf75ff2a1376d019f4fee31545717610100527fdfb119fb2317c7dbb08c59e874c8c2fe82235812eb3417567767b895af32efe7610120526f0bb5f9f0a02692690977e7ac5097cc72610140527fc17765756c7ee736d3e1a522834769114fbe20611a48ff5a8afb6c4f1c5d0834610160526188c051610180526188e0516101a052618900516101c052618920516101e0526f156ab62d7896eccef5cecede0a9fe64f610200527fda7a0f8926ecf78915dedc7b7538c7096f53424dd4da29a02bdf616a17da3ed2610220526f1039465945ab682a5fda213751b71cba610240527f2454f29ed9a6b89e23cd44acbaf4171ec37383c2ec42facc3b022146dec8e274610260526f166f92caf62181b9b0babcb44b18c96f610280527fbc06f0fd6061fb9e4173cabf0ceaa811efe5b0ad70f5ca213940da5e84af3d456102a0526f1924476b91cfdadb80c94b85af60bc246102c0527f720ba968c299e6d58db163a9caac27d185737f35ab29449fec9a7f09f7a5ca886102e0526183405161030052618360516103205261838051610340526183a051610360526f1742e817a24f46a2a9e017803313def9610380527ffe6fd69373e64160954beca1fafd1d5b884583fe377488a541176932db6b066d6103a0526f09c1432fa1ffe138ea14345e30822c3b6103c0527f78c007af61980943cac47c3f71088d12699101973e381f9d9a5ca7e09d7792a26103e0526f03dd485b1205942b2ea6b25d66cdeff4610400527fbc7aca4fc57970c5f0cf952e0ee664c5fe890b51e69baf67244accc119a822c2610420526f123a8d899dc3a23fe967bff3a3605c2d610440527f23c361089384f251b97640cc0367c1246fdbfffda0b0f135bc19ec3d0ede94b0610460526183c051610480526183e0516104a052618400516104c052618420516104e0526f059411cecf4a60426f1dabdfdcbc631b610500527f1f64afed1557f752be4988c10080881f72ef76fb32d9836faa64817efd0c94c2610520526f0e02f0bcd8f1d36763193c0b43872b8f610540527f73b0c3793343bc3ed13d97fc39224a56865b0803d0e07ce00eddb8b7c3f94168610560526f0611327e8964356147dd8238ebaeedb6610580527fd53e73d6bf93f1769be7713a654c5173fd9eea9be2da4e186dc23430e0f67d496105a0526f0cccc9d09758396316b87bc7dc3ce8d56105c0527fafcdf22917ee9c7e905c53b6aa9ad6797beb7c247fa386766344721e89f582366105e0526184405161060052618460516106205261848051610640526184a051610660526f09b3f2eee1513661deff0c695618f222610680527fe6354148b77b18c067e7471ff4d7db05db4124bd383125d4deda6657c69824576106a0526f01ec505466dc0a042c23dbb296f1f84f6106c0527f965c6172377199b7a68a9c322f31ef24884842bc2da64f87c5e9d504fde810f36106e0526f18dc22912739c4604fc8f78ff809dcee610700527fc99ecc106779c5e7951100e8a6eb4625347c1a06f596d3c9eff8a6a36a297e9c610720526f1972902b5e6e9d30cb91157a57ffd3ca610740527f95d52bc82491f9be8750597581a0d6e60759dabfbaf673c987b2649f18a645d661076052618bc05161078052618be0516107a052618c00516107c052618c20516107e0526f1971fb45ba2052c3fa2909d7c243f31b610800527f0cc39b1b00b455d7dd149972e30ca15e39eda43db06be877d31d36f7576fcead610820526f0de2e1e1c8cee742b061bc5967e7dd07610840527f923d5d56f1721cbde5a4729fe3f7c79fd76cc3fbdd1dcff176cb0a8727bd3334610860526f091a47c6445008e031a1287c5b473092610880527fffd575bc8f693425318d72f3f071aa602ea76c75029231309633689420c351336108a0526f0d23af41f9532a91c986aec729d996bd6108c0527f9f206fd8fdb66e5eb72411ddb3af3a628ee78555ffafb8d4f670fbb12eb131836108e0526184c051610900526184e05161092052618500516109405261852051610960526f0434d7a5b5b90ecf4251f64b6f2e6870610980527f94ca41e3d894fcf2122f031a2ecb15273f3bf96401f224b7c88a55a7bf4429ab6109a0526f18c088d70cd70c0765b2e2ae6f4671276109c0527f98883bb35959203dfc5a0c4b051b44ac0eac62062262f23e3469dd9aaa33ad1a6109e0526f0a5d27148877cac0c3da5a3d6db6d742610a00527f3c02c4b80e55ddcd9f1f0f6f3ad6efacf470049dc702d95934b944b4ffe434b1610a20526f170d592138767d9b0914668154d93dc5610a40527fcf3f6d9a11ae7a2a640a30ec7c280ecb9faa7afb81583aa45acd72065ebb3b08610a605261854051610a805261856051610aa05261858051610ac0526185a051610ae0526f085abf7fb1783276d6391983b14552d9610b00527ffbf41c2fdcaeb410a3479a160b5625135a0cdc22c3f8dde5d832afc8e18ef48f610b20526f02dafaf366fe4efbfa3ae62f2628107a610b40527fb2964d57017e76286440a248bfd9c5280692f91b8a0b4a208682869a09ea961a610b60526f140e8fc4f79c587b729aaac3993a6a2a610b80527fdadcfd8fd5f1dbbec5ec9c6d22fa93a87f22b91b81d1ac93653b641462a8f76e610ba0526f15546f9df8fcbdd8c8ff00eef8f39a0b610bc0527f6f373addfac73d84c1b2e25e46db314b15e1fab23c7233c631a96b39a9e65cd6610be05261938051610c00526193a051610c20526193c051610c40526193e051610c60526f0b7480ac2a19a906d2e0a8b3f3d211ae610c80527f2d2e35e522f57d7f050e61311e189d4b2808593c2ab50305cd7e920b5dd91280610ca0526f14fa34c2e9eaec2194553203d61eb265610cc0527f51bdde2c2189ececf9ed8d04582f73b704be8dd8735d2881edc77ba51c755d02610ce0526f028b91a0839a4d74a42548a470a8a5c4610d00527fcdbf743dd63d939c2f9c5e666da50a636cbd6acda2b68cc5cbf7d582386f6376610d20526f18fb2883ed8ef151c425dba2f2bd804a610d40527f7c4d535f208047eceaac25b4b0b61f4665bf5273cd418f96a4bbe6f981490ed9610d605261940051610d805261942051610da05261944051610dc05261946051610de0526f01aedff7d3eec751b593ba1d20efec12610e00527f2c57a9f6aa16bc05b13769f94fa299cc336446bfad690ca17bde00bb7ec28f58610e20526f11f6c6b43b6b6ca21f9b1378fbf25f28610e40527f21ba93c2c28bc7373f707497c005764d9959591e631ff60443388d8e367ca990610e60526f19701d0f9998a1a2d75448f850a3c380610e80527f3b2bc410f121c5a683fb36593ec1b18747380eeb44f4406c1770f82b3a5fd51a610ea0526f05c4dedbad98d18a48661c6c48a334eb610ec0527ff7451a68b148f3362e6d6b5b5d9bf656f5e1f26bb43a80f4878fb8b72957b519610ee05260205f610f0081600f5afa9056fe73eda753299d7d483339d80809a1d80553bda402fffe5bfeffffffff0000000173eda753299d7d483339d80809a1d80553bda402fffe5bfeffffffff0000000064774b84f38512bf6730d2a0f6b0f6241eabfffeb153ffffb9feffffffffaaaba26469706673582212203f1d461f46c7e2756f9c3da9fe1ed41ddea09d35f3c329a2a22d9b9cc84ac46c64736f6c63430008170033","linkReferences":{}},"methodIdentifiers":{"verify(uint256[],uint256[])":"b864f5a9"},"id":19}