{"abi":[{"type":"function","name":"verify","inputs":[{"name":"","type":"uint128[]","internalType":"uint128[]"},{"name":"","type":"uint256[]","internalType":"uint256[]"},{"name":"","type":"uint256[]","internalType":"uint256[]"}],"outputs":[{"name":"final_result","type":"bool","internalType":"bool"}],"stateMutability":"view"}],"bytecode":{"object":"0x60808060405234601557612c68908161001a8239f35b5f80fdfe60806040526004361015610011575f80fd5b5f3560e01c634cebd17414610024575f80fd5b346102d05760603660031901126102d05760043567ffffffffffffffff81116102d0576100559036906004016102d4565b505060243567ffffffffffffffff81116102d0576100779036906004016102d4565b505060443567ffffffffffffffff81116102d0576100999036906004016102d4565b50506f13d25bb3f810de6e1dcf435f7561fdb1619500527f627678dae6390a7b01155b74c45a42573788dd405ee72d93ca771aac3125197f619520526ede773cd3e222498dc98712a3fa6a60619540527fef5559e0ee1fc5ad82792cf4671c7a20acb8150725fbf9f6bda2bba017e1fd66619560526f028f8a44ae00ff0e6660d2cee552f153619680527f745dbd5d8239a8b21eb337a0344fdf5fd9fe1dfaa6a8248c5a4d44b2ba3e0fe06196a0526f0dfd148cd714beb02387ccaa7f37dad66196c0527fad58e6704246d96d642b0764c104967e8914c8822ecc689a90bfeb47db5a114e6196e0526f17f979d9641d6c78c2b2f276567c9aa9619580527f373f99a477cee235ed39228d7c7a478038eba172ec9f30f05b341f8659e2f7176195a0526f0d62461a124444f79d00ea8ee1c4a04d6195c0527f2329a34bbfd42609292ffdd40d46efc2e5507d50c6e1dda06d2c11938aae6a826195e0526e6490a3bc4eff19e3d5866686a5a611619600527fa311af5dadf553088a95cb809ae08d66f4c63a230f7e2471b6df2ee036cc7b96619620526f196f181f0cbf214e203c0fcb6cd574fb619640527f42625bd95f626ea8629a0dcc327fda7d6dbf8218d78a510891d095b266344af3619660526102716112ad565b61027961163a565b61028161187c565b610289611941565b6102916119a2565b610299611b8f565b6102a1611c8d565b6102a9611d07565b6102b1611f79565b6102b9611fe0565b6102c1612047565b6102c961217d565b5f5260205ff35b5f80fd5b9181601f840112156102d05782359167ffffffffffffffff83116102d0576020808501948460051b0101116102d057565b62461bcd60e51b5f526020600452601c6024527f706f696e7453756241737369676e3a204731414444206661696c65640000000060445260645ffd5b62461bcd60e51b5f526020600452601b6024527f6c6f616450726f6f663a2050726f6f6620697320696e76616c6964000000000060445260645ffd5b60205f526020805260206040526060526104006080525f516020612bd35f395f51905f5260a05260205f60c08160055afa156103b8575f5190565b62461bcd60e51b5f52602060045260186024527f6d6f6465787020707265636f6d70696c65206661696c6564000000000000000060445260645ffd5b60205f5260208052602060405260605260406080525f516020612bd35f395f51905f5260a05260205f60c08160055afa156103b8575f5190565b60205f526020805260206040526060527f73eda753299d7d483339d80809a1d80553bda402fffe5bfefffffffeffffffff6080525f516020612bd35f395f51905f5260a05260205f60c08160055afa156103b8575f5190565b60205f52602080526020604052606052608080525f516020612bd35f395f51905f5260a05260205f60c08160055afa156103b8575f5190565b60205f5260208052602060405260806060527f73eda753299d7d483339d80809a1d80553bda402fffe5bfefffffffeffffffff6080525f516020612bd35f395f51905f5260a05260205f60c08160055afa156103b8575f5190565b60205f526020805260206040527f07d0c802a94a946e8cbe2437f0b4b276501dff643be95635b750da4cab28e2086060526080525f516020612bd35f395f51905f5260a05260205f60c08160055afa156103b8575f5190565b60205f5260208052602060405260605260046080525f516020612bd35f395f51905f5260a05260205f60c08160055afa156103b8575f5190565b618340515f5261836051602052618380516040526183a051606052608052608061908060a05f600c5afa156105df57565b62461bcd60e51b5f526020600452601e6024527f6731706f696e744d756c496e746f446573743a2047314d534d206661696c656460445260645ffd5b619680515f526196a0516020526196c0516040526196e051606052608052608061948060a05f600c5afa156105df57565b619480515f526194a0516020526194c0516040526194e051606052608052608061948060a05f600c5afa156105df57565b6185c0515f526185e0516020526186005160405261862051606052608052608061948060a05f600c5afa156105df57565b618640515f5261866051602052618680516040526186a051606052608052608061948060a05f600c5afa156105df57565b619500515f52619520516020526195405160405261956051606052608052608061918060a05f600c5afa156105df57565b618f60515f52618f8051602052618fa051604052618fc051606052608052608061948060a05f600c5afa156105df57565b618ee0515f52618f0051602052618f2051604052618f4051606052608052608061948060a05f600c5afa156105df57565b6186c0515f526186e0516020526187005160405261872051606052608052608061948060a05f600c5afa156105df57565b618740515f5261876051602052618780516040526187a051606052608052608061948060a05f600c5afa156105df57565b618940515f5261896051602052618980516040526189a051606052608052608061948060a05f600c5afa156105df57565b6187c0515f526187e0516020526188005160405261882051606052608052608061928060a05f600c5afa156105df57565b619080515f526190a0516020526190c0516040526190e051606052619480516080526194a05160a0526194c05160c0526194e05160e05260806190806101005f600b5afa1561088157565b62461bcd60e51b5f526020600452601e6024527f6731706f696e74416464496e746f446573743a204731414444206661696c656460445260645ffd5b619180515f526191a0516020526191c0516040526191e051606052619480516080526194a05160a0526194c05160c0526194e05160e05260806191806101005f600b5afa1561088157565b619100515f52619120516020526191405160405261916051606052619480516080526194a05160a0526194c05160c0526194e05160e05260806192006101005f600b5afa1561088157565b619200515f52619220516020526192405160405261926051606052619280516080526192a05160a0526192c05160c0526192e05160e05260806193006101005f600b5afa1561088157565b618240515f5261826051602052618280516040526182a05160605260805260805f60a081600c5afa618ee051608052618f005160a052618f205160c052618f405160e0526080618ee06101005f600b5afa16156109f757565b62461bcd60e51b5f52602060045260166024527f6731706f696e744d756c416e64416464496e746f44657374000000000000000060445260645ffd5b6182c0515f526182e051602052618300516040526183205160605260805260805f60a081600c5afa618ee051608052618f005160a052618f205160c052618f405160e0526080618ee06101005f600b5afa16156109f757565b619680515f526196a0516020526196c0516040526196e05160605260805260805f60a081600c5afa618ee051608052618f005160a052618f205160c052618f405160e0526080618ee06101005f600b5afa16156109f757565b619580515f526195a0516020526195c0516040526195e05160605260805260805f60a081600c5afa618f6051608052618f805160a052618fa05160c052618fc05160e0526080618f606101005f600b5afa16156109f757565b619600515f5261962051602052619640516040526196605160605260805260805f60a081600c5afa618f6051608052618f805160a052618fa05160c052618fc05160e0526080618f606101005f600b5afa16156109f757565b619680515f526196a0516020526196c0516040526196e05160605260805260805f60a081600c5afa618f6051608052618f805160a052618fa05160c052618fc05160e0526080618f606101005f600b5afa16156109f757565b618a40515f52618a6051602052618a8051604052618aa05160605260805260805f60a081600c5afa619380516080526193a05160a0526193c05160c0526193e05160e05260806193806101005f600b5afa16156109f757565b618b40515f52618b6051602052618b8051604052618ba05160605260805260805f60a081600c5afa619380516080526193a05160a0526193c05160c0526193e05160e05260806193806101005f600b5afa16156109f757565b6189c0515f526189e051602052618a0051604052618a205160605260805260805f60a081600c5afa619400516080526194205160a0526194405160c0526194605160e05260806194006101005f600b5afa16156109f757565b618ac0515f52618ae051602052618b0051604052618b205160605260805260805f60a081600c5afa619400516080526194205160a0526194405160c0526194605160e05260806194006101005f600b5afa16156109f757565b618840515f5261886051602052618880516040526188a05160605260805260805f60a081600c5afa619280516080526192a05160a0526192c05160c0526192e05160e05260806192806101005f600b5afa16156109f757565b618a40515f52618a6051602052618a8051604052618aa05160605260805260805f60a081600c5afa619280516080526192a05160a0526192c05160c0526192e05160e05260806192806101005f600b5afa16156109f757565b6189c0515f526189e051602052618a0051604052618a205160605260805260805f60a081600c5afa619280516080526192a05160a0526192c05160c0526192e05160e05260806192806101005f600b5afa16156109f757565b618b40515f52618b6051602052618b8051604052618ba05160605260805260805f60a081600c5afa619280516080526192a05160a0526192c05160c0526192e05160e05260806192806101005f600b5afa16156109f757565b618ac0515f52618ae051602052618b0051604052618b205160605260805260805f60a081600c5afa619280516080526192a05160a0526192c05160c0526192e05160e05260806192806101005f600b5afa16156109f757565b619080515f526190a0516020526190c0516040526190e051606052618440516080526184605160a0526184a05161848051905f90805f516020612c135f395f51905f5210600114610f9f575f516020612c135f395f51905f5203915b016f1a0111ea397fe69a4b1ba7b6434bacd70360c05260e05260806190806101005f600b5afa15610f9a57565b610305565b5f516020612c135f395f51905f52039160019150610f6d565b619080515f526190a0516020526190c0516040526190e051606052619480516080526194a05160a0526194e0516194c051905f90805f516020612c135f395f51905f5210600114610f9f575f516020612c135f395f51905f520391016f1a0111ea397fe69a4b1ba7b6434bacd70360c05260e05260806190806101005f600b5afa15610f9a57565b619100515f52619120516020526191405160405261916051606052619480516080526194a05160a0526194e0516194c051905f90805f516020612c135f395f51905f52106001146110c9575f516020612c135f395f51905f5203915b016f1a0111ea397fe69a4b1ba7b6434bacd70360c05260e05260806191006101005f600b5afa15610f9a57565b5f516020612c135f395f51905f5203916001915061109c565b619180515f526191a0516020526191c0516040526191e051606052619480516080526194a05160a0526194e0516194c051905f90805f516020612c135f395f51905f521060011461116b575f516020612c135f395f51905f5203915b016f1a0111ea397fe69a4b1ba7b6434bacd70360c05260e05260806191806101005f600b5afa15610f9a57565b5f516020612c135f395f51905f5203916001915061113e565b5f618d4353618d84526064618d40206001618d43536064618d4020618d6452618d4452565b6002618d43535f618d84526048618d40206001600160fd1b031690565b6002618d4353600160e01b618d84526048618d40206001600160fd1b031690565b6002618d4353600160e11b618d84526048618d40206001600160fd1b031690565b6002618d4353600360e01b618d84526048618d40206001600160fd1b031690565b6002618d4353600160e21b618d84526048618d40206001600160fd1b031690565b6002618d4353600560e01b618d84526048618d40206001600160fd1b031690565b6002618d4353600360e11b618d84526048618d40206001600160fd1b031690565b6002618d4353600760e01b618d84526048618d40206001600160fd1b031690565b602a600480355f516020612bd35f395f51905f526105c460243560248401356182405260448401356182805260648401356182c05260848401356183005260248101356182605260448101356182a05260648101356182e05260848101356183205260a48401356183405260c48401356183805260e48401356183c05261010484013561840052610124840135618440526101448401356184805260a48101356183605260c48101356183a05260e48101356183e05261010481013561842052610124810135618460526101448101356184a0526101648401356184c052610184840135618500526101a4840135618540526101c4840135618580526101648101356184e052610184810135618520526101a4810135618560526101c48101356185a0526101e48401356185c0526102048401356186005261022484013561864052610244840135618680526102648401356186c052610284840135618700526102a4840135618740526102c4840135618780526101e48101356185e05261020481013561862052610224810135618660526102448101356186a0526102648101356186e052610284810135618720526102a4810135618760526102c48101356187a0526102e48401356187c0526103048401356188005261032484013561884052610344840135618880526102e48101356187e05261030481013561882052610324810135618860526103448101356188a0526103648401356188c052610384840135618900526103a4840135618940526103c4840135618980526103648101356188e052610384810135618920526103a4810135618960526103c48101356189a0526103e48401356189c052610404840135618a0052610424840135618a4052610444840135618a8052610464840135618ac052610484840135618b00526104a4840135618b40526104c4840135618b80526103e48101356189e052610404810135618a2052610424810135618a6052610444810135618aa052610464810135618ae052610484810135618b20526104a4810135618b60526104c4810135618ba0526104e4840135618bc052610504840135618c0052610524840135618c4052610544840135618c80526104e4810135618be052610504810135618c2052610524810135618c6052610544810135618ca0528261056482013506618cc0528261058482013506618ce052826105a482013506618d0052013506618d205201350361163557565b610341565b61164661834051611184565b61165261836051611184565b61165e61838051611184565b61166a6183a051611184565b6116766183c051611184565b6116826183e051611184565b61168e61840051611184565b61169a61842051611184565b6116a661844051611184565b6116b261846051611184565b6116be61848051611184565b6116ca6184a051611184565b6116d66185c051611184565b6116e26185e051611184565b6116ee61860051611184565b6116fa61862051611184565b61170661864051611184565b61171261866051611184565b61171e61868051611184565b61172a6186a051611184565b6117366188c051611184565b6117426188e051611184565b61174e61890051611184565b61175a61892051611184565b6117626111a9565b618dc05261176e6111c6565b618de05261177a6111e7565b618e005261178a61894051611184565b61179661896051611184565b6117a261898051611184565b6117ae6189a051611184565b6117b6611208565b618e20526117c66186c051611184565b6117d26186e051611184565b6117de61870051611184565b6117ea61872051611184565b6117f661874051611184565b61180261876051611184565b61180e61878051611184565b61181a6187a051611184565b611822611229565b618ec05261182e61124a565b618e805261183e618d2051611184565b61184a618cc051611184565b611856618ce051611184565b611862618d0051611184565b61186a61126b565b618e405261187661128c565b618e6052565b6118c1618dc0516118bc618de0516118b7618e0051936188c051618ee0526188e051618f005261890051618f205261892051618f405261099e565b610a33565b610a8c565b611906618dc051611901618de0516118fc618e0051936188c051618f60526188e051618f805261890051618fa05261892051618fc052610ae5565b610b3e565b610b97565b5f19611914618ec05161037d565b01618fe0525f19611927618e80516103f4565b01619000525f1961193a618ec05161037d565b0161902052565b618ec051600181146102d0575f516020612bd35f395f51905f52805f516020612bf35f395f51905f5281816119758661037d565b089308610400099081156102d05761199a5f516020612bd35f395f51905f529261042e565b900961904052565b618ec05190604435915f516020612bd35f395f51905f525f516020612bf35f395f51905f526119d083610487565b088015611b26575b5f936119e26104c0565b925f915f5b60808110611af0575050905f915b818310611a19575050505f516020612bd35f395f51905f5292938391090961906052565b9091958660061b612020816120000151910151906001906010811080611aa6575b15611a96575b505f516020612bd35f395f51905f5281810385088015611a86575f516020612bd35f395f51905f52928360019593611a78829461042e565b9209099008960191906119f5565b5050959650505050505061906052565b611aa0915061051b565b5f611a40565b5f5b828110611ab55750611a3a565b925f516020612bd35f395f51905f527f07d0c802a94a946e8cbe2437f0b4b276501dff643be95635b750da4cab28e208600192099301611aa8565b60248160051b8301013580611b09575b506001016119e7565b600685901b61200081018390526120200152600193840193611b00565b5f60015b60808210611b395750506119d8565b808414611b7b575f516020612bd35f395f51905f527f07d0c802a94a946e8cbe2437f0b4b276501dff643be95635b750da4cab28e20860019209910190611b2a565b5060051b9093016024013561906052509050565b611b9b618d20516105ae565b611ba3610f11565b611baf618d205161061b565b6183c0515f526183e0516020526184005160405261842051606052619480516080526194a05160a0526194e0516194c051905f90805f516020612c135f395f51905f5210600114611c74575f516020612c135f395f51905f5203915b016f1a0111ea397fe69a4b1ba7b6434bacd70360c05260e05260806194806101005f600b5afa15610f9a57611c42618e405161064c565b611c4a610836565b611c56618fe05161067d565b611c5e610fb8565b611c6a619000516106ae565b611c72610fb8565b565b5f516020612c135f395f51905f52039160019150611c0b565b618e60515f516020612bd35f395f51905f52618e405191816190605191611cc38280611cb888610574565b840960010895610574565b90090990618c40515f52618c6051602052618c8051604052618ca051606052608052608061910060a05f600c5afa156105df57611cff9061061b565b611c72611040565b618e2051618e4051905f516020612bd35f395f51905f5282800991825f516020612bd35f395f51905f52910991618e6051905f516020612bd35f395f51905f5282800993618ec0515f516020612bf35f395f51905f525f516020612bd35f395f51905f52910891618cc05190618ce05193618d00519661904051619020519161900051935f516020612bd35f395f51905f525f516020612bf35f395f51905f5288085f516020612bd35f395f51905f52908709611dc3906106df565b5f516020612bd35f395f51905f52828709905f516020612bd35f395f51905f5291095f516020612bd35f395f51905f52878209611dff90610710565b88611e086108bd565b5f516020612bd35f395f51905f529109611e2190610741565b611e296110e2565b805f516020612bd35f395f51905f5291095f516020612bd35f395f51905f52908509905f516020612bd35f395f51905f5291095f516020612bd35f395f51905f52858209611e7690610710565b88611e7f6108bd565b5f516020612bd35f395f51905f529109611e9890610741565b611ea06110e2565b5f516020612bd35f395f51905f52908309611eba90610772565b611ec26110e2565b5f516020612bd35f395f51905f529109611edb906107a3565b611ee36110e2565b611eec826107d4565b611ef46108bd565b5f516020612bd35f395f51905f529109611f0d9061061b565b611f156110e2565b611f1e826107d4565b611f266108bd565b5f516020612bd35f395f51905f529109611f3f9061061b565b611f476110e2565b611f50826107d4565b611f586108bd565b5f516020612bd35f395f51905f529109611f719061061b565b611c726110e2565b618e60515f516020612bd35f395f51905f528180096187c0515f526187e051602052618800516040526188205160605281608052608061938060a05f600c5afa156105df57611c729181611fda5f516020612bd35f395f51905f5293610bf0565b09610c49565b618e60515f516020612bd35f395f51905f52818009618840515f5261886051602052618880516040526188a05160605281608052608061940060a05f600c5afa156105df57611c7291816120415f516020612bd35f395f51905f5293610ca2565b09610cfb565b618e6051619080515f526190a0516020526190c0516040526190e051606052619180516080526191a05160a0526191c05160c0526191e05160e05260806194806101005f600b5afa156108815761209d9061064c565b6120a5610908565b6121755f516020612bd35f395f51905f52618e6051817f199cdaee7b3c79d6566009b5882952d6a41e85011d426b52b891fa3f982b68c5618ec0519261216e83618e80519561214482888187800961210f8383818b85099a612109838a8309610805565b09610d54565b61213e8386817f2bcd9508a3dad316105f067219141f4450a32c41aa67e0beb0ad80034eb71aa6850909610dad565b09610e06565b817f2bcd9508a3dad316105f067219141f4450a32c41aa67e0beb0ad80034eb71aa6850909610e5f565b0909610eb8565b611c72610953565b619300515f526193205160205261934051604052619360516060526f0890855e3092cc1da5063db0da3f1f6d6080527fa30581ac6941b60f6a40d1c3295374f6399acd44d9f433265d13ee57462d11dc60a0526f1062cb3c7e229c00647fdc4cdf7090f760c0527f74a21b82d44d94698289654631255c5edcd1c2e67af02485c565c52fed895fc260e0526f118bf75ff2a1376d019f4fee31545717610100527fdfb119fb2317c7dbb08c59e874c8c2fe82235812eb3417567767b895af32efe7610120526f0bb5f9f0a02692690977e7ac5097cc72610140527fc17765756c7ee736d3e1a522834769114fbe20611a48ff5a8afb6c4f1c5d0834610160526188c051610180526188e0516101a052618900516101c052618920516101e0526f156ab62d7896eccef5cecede0a9fe64f610200527fda7a0f8926ecf78915dedc7b7538c7096f53424dd4da29a02bdf616a17da3ed2610220526f1039465945ab682a5fda213751b71cba610240527f2454f29ed9a6b89e23cd44acbaf4171ec37383c2ec42facc3b022146dec8e274610260526f166f92caf62181b9b0babcb44b18c96f610280527fbc06f0fd6061fb9e4173cabf0ceaa811efe5b0ad70f5ca213940da5e84af3d456102a0526f1924476b91cfdadb80c94b85af60bc246102c0527f720ba968c299e6d58db163a9caac27d185737f35ab29449fec9a7f09f7a5ca886102e0526183405161030052618360516103205261838051610340526183a051610360526f1742e817a24f46a2a9e017803313def9610380527ffe6fd69373e64160954beca1fafd1d5b884583fe377488a541176932db6b066d6103a0526f09c1432fa1ffe138ea14345e30822c3b6103c0527f78c007af61980943cac47c3f71088d12699101973e381f9d9a5ca7e09d7792a26103e0526f03dd485b1205942b2ea6b25d66cdeff4610400527fbc7aca4fc57970c5f0cf952e0ee664c5fe890b51e69baf67244accc119a822c2610420526f123a8d899dc3a23fe967bff3a3605c2d610440527f23c361089384f251b97640cc0367c1246fdbfffda0b0f135bc19ec3d0ede94b0610460526183c051610480526183e0516104a052618400516104c052618420516104e0526f059411cecf4a60426f1dabdfdcbc631b610500527f1f64afed1557f752be4988c10080881f72ef76fb32d9836faa64817efd0c94c2610520526f0e02f0bcd8f1d36763193c0b43872b8f610540527f73b0c3793343bc3ed13d97fc39224a56865b0803d0e07ce00eddb8b7c3f94168610560526f0611327e8964356147dd8238ebaeedb6610580527fd53e73d6bf93f1769be7713a654c5173fd9eea9be2da4e186dc23430e0f67d496105a0526f0cccc9d09758396316b87bc7dc3ce8d56105c0527fafcdf22917ee9c7e905c53b6aa9ad6797beb7c247fa386766344721e89f582366105e0526184405161060052618460516106205261848051610640526184a051610660526f09b3f2eee1513661deff0c695618f222610680527fe6354148b77b18c067e7471ff4d7db05db4124bd383125d4deda6657c69824576106a0526f01ec505466dc0a042c23dbb296f1f84f6106c0527f965c6172377199b7a68a9c322f31ef24884842bc2da64f87c5e9d504fde810f36106e0526f18dc22912739c4604fc8f78ff809dcee610700527fc99ecc106779c5e7951100e8a6eb4625347c1a06f596d3c9eff8a6a36a297e9c610720526f1972902b5e6e9d30cb91157a57ffd3ca610740527f95d52bc82491f9be8750597581a0d6e60759dabfbaf673c987b2649f18a645d661076052618bc05161078052618be0516107a052618c00516107c052618c20516107e0526f1971fb45ba2052c3fa2909d7c243f31b610800527f0cc39b1b00b455d7dd149972e30ca15e39eda43db06be877d31d36f7576fcead610820526f0de2e1e1c8cee742b061bc5967e7dd07610840527f923d5d56f1721cbde5a4729fe3f7c79fd76cc3fbdd1dcff176cb0a8727bd3334610860526f091a47c6445008e031a1287c5b473092610880527fffd575bc8f693425318d72f3f071aa602ea76c75029231309633689420c351336108a0526f0d23af41f9532a91c986aec729d996bd6108c0527f9f206fd8fdb66e5eb72411ddb3af3a628ee78555ffafb8d4f670fbb12eb131836108e0526184c051610900526184e05161092052618500516109405261852051610960526f0434d7a5b5b90ecf4251f64b6f2e6870610980527f94ca41e3d894fcf2122f031a2ecb15273f3bf96401f224b7c88a55a7bf4429ab6109a0526f18c088d70cd70c0765b2e2ae6f4671276109c0527f98883bb35959203dfc5a0c4b051b44ac0eac62062262f23e3469dd9aaa33ad1a6109e0526f0a5d27148877cac0c3da5a3d6db6d742610a00527f3c02c4b80e55ddcd9f1f0f6f3ad6efacf470049dc702d95934b944b4ffe434b1610a20526f170d592138767d9b0914668154d93dc5610a40527fcf3f6d9a11ae7a2a640a30ec7c280ecb9faa7afb81583aa45acd72065ebb3b08610a605261854051610a805261856051610aa05261858051610ac0526185a051610ae0526f085abf7fb1783276d6391983b14552d9610b00527ffbf41c2fdcaeb410a3479a160b5625135a0cdc22c3f8dde5d832afc8e18ef48f610b20526f02dafaf366fe4efbfa3ae62f2628107a610b40527fb2964d57017e76286440a248bfd9c5280692f91b8a0b4a208682869a09ea961a610b60526f140e8fc4f79c587b729aaac3993a6a2a610b80527fdadcfd8fd5f1dbbec5ec9c6d22fa93a87f22b91b81d1ac93653b641462a8f76e610ba0526f15546f9df8fcbdd8c8ff00eef8f39a0b610bc0527f6f373addfac73d84c1b2e25e46db314b15e1fab23c7233c631a96b39a9e65cd6610be05261938051610c00526193a051610c20526193c051610c40526193e051610c60526f0b7480ac2a19a906d2e0a8b3f3d211ae610c80527f2d2e35e522f57d7f050e61311e189d4b2808593c2ab50305cd7e920b5dd91280610ca0526f14fa34c2e9eaec2194553203d61eb265610cc0527f51bdde2c2189ececf9ed8d04582f73b704be8dd8735d2881edc77ba51c755d02610ce0526f028b91a0839a4d74a42548a470a8a5c4610d00527fcdbf743dd63d939c2f9c5e666da50a636cbd6acda2b68cc5cbf7d582386f6376610d20526f18fb2883ed8ef151c425dba2f2bd804a610d40527f7c4d535f208047eceaac25b4b0b61f4665bf5273cd418f96a4bbe6f981490ed9610d605261940051610d805261942051610da05261944051610dc05261946051610de0526f01aedff7d3eec751b593ba1d20efec12610e00527f2c57a9f6aa16bc05b13769f94fa299cc336446bfad690ca17bde00bb7ec28f58610e20526f11f6c6b43b6b6ca21f9b1378fbf25f28610e40527f21ba93c2c28bc7373f707497c005764d9959591e631ff60443388d8e367ca990610e60526f19701d0f9998a1a2d75448f850a3c380610e80527f3b2bc410f121c5a683fb36593ec1b18747380eeb44f4406c1770f82b3a5fd51a610ea0526f05c4dedbad98d18a48661c6c48a334eb610ec0527ff7451a68b148f3362e6d6b5b5d9bf656f5e1f26bb43a80f4878fb8b72957b519610ee05260205f610f0081600f5afa9056fe73eda753299d7d483339d80809a1d80553bda402fffe5bfeffffffff0000000173eda753299d7d483339d80809a1d80553bda402fffe5bfeffffffff0000000064774b84f38512bf6730d2a0f6b0f6241eabfffeb153ffffb9feffffffffaaaba26469706673582212206cedc430bef0a0ab129a2d87fb2ae578b2f79d7a0dd3a8db4c55840403d75f1864736f6c634300081e0033","linkReferences":{}},"methodIdentifiers":{"verify(uint128[],uint256[],uint256[])":"4cebd174"},"id":19}