{"abi":[{"type":"function","name":"verify","inputs":[{"name":"","type":"uint128[]","internalType":"uint128[]"},{"name":"","type":"uint256[]","internalType":"uint256[]"}],"outputs":[{"name":"result","type":"bytes32","internalType":"bytes32"}],"stateMutability":"view"}],"bytecode":{"object":"0x6080806040523460155761137a908161001a8239f35b5f80fdfe60806040526004361015610011575f80fd5b5f3560e01c6306922ed614610024575f80fd5b346102805760403660031901126102805760043567ffffffffffffffff811161028057610055903690600401610284565b505060243567ffffffffffffffff811161028057610077903690600401610284565b50506f063099278fcb7d55becb383a9345832c6114e0527fb43219eee77ed6e247ee5922a1f19aa4bdc8f5940dc9240b20a04c4e1a897086611500526f1176a6fe4c4db835d9099a0bfb8a9159611520527f887624ca328cf813eb4038c22237e5121220946a136308ba3555100ee2a7be59611540526f097b16a0adf5f112a3aea1fadd03c33c611560527f1df8944f0db2a6d2bcf77aad2199f61c87d2abb6296f56f3c761aaa3e49c9b64611580526f0ff5f37c65588889739b20d4f383792b6115a0527ffef7b0d38d0143f1919fc0417a1f2d689b3fc3dac384e5a90a4c4270b200bf8c6115c0526f0766f19c78578fdf77d09bb08ec940ad6115e0527fc98f956efe605aa52519ecdbdd2258763760787f3234533fa4dde15f5b94a99b611600526f0fbb9932fc437ad799b2f07360e1dddb611620527f2a9d76a4c6019403f5379ec18a6b8b5f38533ae2dce1e557ab59b025a343223b611640526f12b72b8a5a5d7613f69175b6d9cbdfe2611660527fccbad6739d6ab455a7ad91a807b66a8d907e4cc936250fe2a79038d2bc072772611680526f0f0b72ad561acc45a5d55046986dbb6b6116a0527f2a3daad1efd75da947a919edd9b5bd10f38cd1e5317d49a46cc41a85277116876116c052610251610a5c565b610259610ddf565b610261611081565b610269611177565b610271611235565b610e2051604051908152602090f35b5f80fd5b9181601f840112156102805782359167ffffffffffffffff8311610280576020808501948460051b01011161028057565b62461bcd60e51b5f526020600452601b6024527f6c6f616450726f6f663a2050726f6f6620697320696e76616c6964000000000060445260645ffd5b60205f526020805260206040526060526108006080525f5160206113055f395f51905f5260a05260205f60c08160055afa1561032c575f5190565b62461bcd60e51b5f52602060045260186024527f6d6f6465787020707265636f6d70696c65206661696c6564000000000000000060445260645ffd5b60205f5260208052602060405260605260406080525f5160206113055f395f51905f5260a05260205f60c08160055afa1561032c575f5190565b60205f526020805260206040526060526102006080525f5160206113055f395f51905f5260a05260205f60c08160055afa1561032c575f5190565b60205f5260208052602060405260036060526080525f5160206113055f395f51905f5260a05260205f60c08160055afa1561032c575f5190565b610340515f5261036051602052610380516040526103a051606052608052608061106060a05f600c5afa1561044857565b62461bcd60e51b5f526020600452601e6024527f6731706f696e744d756c496e746f446573743a2047314d534d206661696c656460445260645ffd5b610340515f5261036051602052610380516040526103a051606052608052608061146060a05f600c5afa1561044857565b6105c0515f526105e0516020526106005160405261062051606052608052608061146060a05f600c5afa1561044857565b610640515f5261066051602052610680516040526106a051606052608052608061146060a05f600c5afa1561044857565b610240515f5261026051602052610280516040526102a05160605260805260805f60a081600c5afa610ec051608052610ee05160a052610f005160c052610f205160e0526080610ec06101005f600b5afa161561057057565b62461bcd60e51b5f52602060045260166024527f6731706f696e744d756c416e64416464496e746f44657374000000000000000060445260645ffd5b6102c0515f526102e051602052610300516040526103205160605260805260805f60a081600c5afa610ec051608052610ee05160a052610f005160c052610f205160e0526080610ec06101005f600b5afa161561057057565b611660515f52611680516020526116a0516040526116c05160605260805260805f60a081600c5afa610ec051608052610ee05160a052610f005160c052610f205160e0526080610ec06101005f600b5afa161561057057565b611560515f52611580516020526115a0516040526115c05160605260805260805f60a081600c5afa610f4051608052610f605160a052610f805160c052610fa05160e0526080610f406101005f600b5afa161561057057565b6115e0515f5261160051602052611620516040526116405160605260805260805f60a081600c5afa610f4051608052610f605160a052610f805160c052610fa05160e0526080610f406101005f600b5afa161561057057565b611660515f52611680516020526116a0516040526116c05160605260805260805f60a081600c5afa610f4051608052610f605160a052610f805160c052610fa05160e0526080610f406101005f600b5afa161561057057565b915f925f92801582151661084557805f5160206113255f395f51905f5210610804575b805f5160206113255f395f51905f52116107d5575b50505f5160206113255f395f51905f5282146f1a0111ea397fe69a4b1ba7b6434bacd78414166107cd57565b5f9250829150565b91935091505f5160206113255f395f51905f5203906f1a0111ea397fe69a4b1ba7b6434bacd703915f806107a1565b6f1a0111ea397fe69a4b1ba7b6434bacd6829003945080197f64774b84f38512bf6730d2a0f6b0f6241eabfffeb153ffffb9feffffffffaaac01935061078c565b505f935083925050565b611060515f52611080516020526110a0516040526110c05160605261087a6104a05161048051610769565b90610440516080526104605160a05260c05260e05260806110606101005f600b5afa156108a357565b62461bcd60e51b5f526020600452601c6024527f706f696e7453756241737369676e3a204731414444206661696c65640000000060445260645ffd5b611060515f52611080516020526110a0516040526110c05160605261090a6114c0516114a051610769565b90611460516080526114805160a05260c05260e05260806110606101005f600b5afa156108a357565b5f610d2353610d64526064610d20206001610d23536064610d2020610d4452610d2452565b6002610d23535f610d64526048610d20206001600160fd1b031690565b6002610d2353600160e01b610d64526048610d20206001600160fd1b031690565b6002610d2353600160e11b610d64526048610d20206001600160fd1b031690565b6002610d2353600360e01b610d64526048610d20206001600160fd1b031690565b6002610d2353600160e21b610d64526048610d20206001600160fd1b031690565b6002610d2353600560e01b610d64526048610d20206001600160fd1b031690565b6002610d2353600360e11b610d64526048610d20206001600160fd1b031690565b6002610d2353600760e01b610d64526048610d20206001600160fd1b031690565b6030600480355f5160206113055f395f51905f526105c460243560248401356102405260448401356102805260648401356102c05260848401356103005260248101356102605260448101356102a05260648101356102e05260848101356103205260a48401356103405260c48401356103805260e48401356103c052610124840135610440526101448401356104805260a48101356103605260c48101356103a05260e48101356103e05261010481013561042052610124810135610460526101448101356104a0526101648401356104c052610184840135610400526101a4840135610540526101c4840135610580526101648101356104e052610184810135610520526101a4810135610560526101c48101356105a0526101e48401356105c0526102048401356106005261022484013561064052610244840135610680526102648401356106c052610284840135610700526102a4840135610740526102c4840135610780526101e48101356105e05261020481013561062052610224810135610660526102448101356106a0526102648101356106e052610284810135610720526102a4810135610760526102c48101356107a0526102e48401356107c0526103048401356108005261032484013561084052610344840135610880526102e48101356107e05261030481013561082052610324810135610860526103448101356108a0526103648401356108c052610384840135610900526103a4840135610940526103c4840135610980526103648101356108e052610384810135610920526103a4810135610960526103c48101356109a0526103e48401356109c052610404840135610a0052610424840135610a4052610444840135610a8052610464840135610ac052610484840135610b00526104a4840135610b40526104c4840135610b80526103e48101356109e052610404810135610a2052610424810135610a6052610444810135610aa052610464810135610ae052610484810135610b20526104a4810135610b60526104c4810135610ba0526104e4840135610bc052610504840135610c0052610524840135610c4052610544840135610c80526104e4810135610be052610504810135610c2052610524810135610c6052610544810135610ca0528261056482013506610cc0528261058482013506610ce052826105a482013506610d0052013506610d2052013503610dda57565b6102b5565b610deb61034051610933565b610df761036051610933565b610e0361038051610933565b610e0f6103a051610933565b610e1b6103c051610933565b610e276103e051610933565b610e3361040051610933565b610e3f61042051610933565b610e4b61044051610933565b610e5761046051610933565b610e6361048051610933565b610e6f6104a051610933565b610e7b6104c051610933565b610e876104e051610933565b610e9361040051610933565b610e9f61052051610933565b610eab61054051610933565b610eb761056051610933565b610ec361058051610933565b610ecf6105a051610933565b610edb6105c051610933565b610ee76105e051610933565b610ef361060051610933565b610eff61062051610933565b610f0b61064051610933565b610f1761066051610933565b610f2361068051610933565b610f2f6106a051610933565b610f3b6108c051610933565b610f476108e051610933565b610f5361090051610933565b610f5f61092051610933565b610f67610958565b610da052610f73610975565b610dc052610f7f610996565b610de052610f8f61094051610933565b610f9b61096051610933565b610fa761098051610933565b610fb36109a051610933565b610fbb6109b7565b610e0052610fcb6106c051610933565b610fd76106e051610933565b610fe361070051610933565b610fef61072051610933565b610ffb61074051610933565b61100761076051610933565b61101361078051610933565b61101f6107a051610933565b6110276109d8565b610ea0526110336109f9565b610e6052611043610d2051610933565b61104f610cc051610933565b61105b610ce051610933565b611067610d0051610933565b61106f610a1a565b610e205261107b610a3b565b610e4052565b6110bf610da0516108c051610ec0526108e051610ee05261090051610f005261092051610f20526110b181610517565b6110ba816105ac565b610605565b6110fd610da0516108c051610f40526108e051610f605261090051610f805261092051610fa0526110ef8161065e565b6110f8816106b7565b610710565b5f1961110b610ea0516102f1565b01610fc0525f1961111e610e6051610368565b01610fe0525f19611131610ea0516103a2565b0161100052610ea0518015610280575f1961114b826103a2565b01905f19018015610280575f5160206113055f395f51905f529061020009908115610280570461102052565b5f600435610ea051905f915b601f83106111945750505061104052565b90919260016111a2856103dd565b5f905b601f82106111db5750506001915f5160206113055f395f51905f528092816106e48960051b890101350609900893019190611183565b909186831461122c576111ed836103dd565b5f5160206113055f395f51905f52808285030106918215610280576001925f5160206113055f395f51905f528080948a030106049009925b01906111a5565b91600190611225565b611241610d2051610417565b61124961084f565b611255610e2051610484565b611060515f52611080516020526110a0516040526110c051606052611460516080526114805160a0526114a05160c0526114c05160e05260806110606101005f600b5afa156112c8576112aa610fc0516104b5565b6112b26108df565b6112be610fe0516104e6565b6112c66108df565b565b62461bcd60e51b5f526020600452601e6024527f6731706f696e74416464496e746f446573743a204731414444206661696c656460445260645ffdfe73eda753299d7d483339d80809a1d80553bda402fffe5bfeffffffff0000000164774b84f38512bf6730d2a0f6b0f6241eabfffeb153ffffb9feffffffffaaaba2646970667358221220c05908d66c874e471819341abed0490eb10200774e9672b82104eff24ae408f064736f6c634300081c0033","linkReferences":{}},"methodIdentifiers":{"verify(uint128[],uint256[])":"06922ed6"},"id":19}